:1000000025C1000054C1000052C1000050C10000D1
:100010004EC100004CC100004AC1000048C10000B0
:1000200046C1000044C1000042C1000040C10000C0
:100030003EC100003CC100003AC1000038C10000D0
:1000400036C1000035C7000032C1000030C10000D9
:100050002EC100002CC100002AC1000058C60000BB
:1000600026C10000AEC4000083C4000020C100000F
:100070001EC100001CC100001AC1000018C1000010
:10008000EAC6000014C1000012C1000010C1000047
:1000900046C400001BC400000AC1000008C10000E3
:1000A00006C1000004C10000A9C6000000C1000094
:1000B000FEC00000FCC00000FAC0000072C60000D4
:1000C000F6C00000F4C00000F2C00000F0C0000064
:1000D000EEC00000ECC00000EAC00000E8C0000074
:1000E000E6C0000093039603850389038F03CD03C5
:1000F0009A039E03A403A803AC03B203B603BA0396
:10010000CD03C003C403C803A00B990BB10BA70B0D
:10011000A40B750B940B3C0B1F0D080D330D2A0D12
:10012000240DD30C020D9A0C00002100240027009E
:100130002A002D00300033000101000004010701F6
:100140000A0100002200250028002B002E003100AB
:10015000340002010000050108010B01000020002D
:100160002300260029002C002F003200000100008F
:10017000030106010901050505050705080808082A
:10018000020202020A0A080804040404010101012F
:10019000010101010303030303030303040707072A
:1001A0000C0C0C0C0C0C0C0C0202020206060606CF
:1001B000060606060B0B0B0B0B0B0B0B010210209C
:1001C000200808102040102040800201020108048D
:1001D0000201010204081020408080402010080421
:1001E000020180040201804020100804020108047A
:1001F00002010102040810204080010204081020BE
:10020000408000000A0B02090C0D0E0807030401D0
:1002100000000000000000000000000000000000DE
:1002200000000000000000000000000000001211AB
:1002300010000000000000000000000000000000AE
:100240000000000000000000440F481411241FBEED
:10025000CFEFD1E2DEBFCDBF00E00CBF12E0A0E0E7
:10026000B2E0E2E0F3E300E00BBF02C007900D92C2
:10027000A03DB107D9F725E0A0EDB2E001C01D9285
:10028000AD36B207E1F711E0C5E2D1E000E006C00B
:1002900021970109802FFE010E942617C432D10741
:1002A00080E00807A9F70E943F100C947019A8CEAF
:1002B000CF92DF92EF92FF92DC01A03282E0B8078A
:1002C0000CF03EC0B7FD06C0A53BB1052CF0A4EB79
:1002D000B0E002C0A0E0B0E08091BA0428E830E0CD
:1002E0006901C81AD10887FDD394CC0CDD1CCC0C55
:1002F000DD1C0D2C000CEE08FF088091BB0428E5E6
:1003000032E0281B310987FD3395220F331F220F5E
:10031000331FA901330F660B770B9A01AB012C1920
:100320003D094E095F090E94CE1524EB30E040E004
:1003300050E00E94A815C20ED31EE41EF51ED60181
:100340009091B904903398F58091BA0448E850E050
:10035000481B510987FD5395440F551F440F551FE6
:10036000A417B5078CF08091BB0428E532E0281B68
:10037000310987FD3395220F331F220F331FAD0143
:100380002A173B070CF4A90142505109440F551F8D
:100390002FB7F894892F90E0FC01EE0FFF1F8E0F0E
:1003A0009F1FFC01E65FFB4F528341832FBFFF90ED
:1003B000EF90DF90CF9008950E945319FF920F9312
:1003C0001F93CF93DF93F82E062FC7E0D0E010E005
:1003D00061E0802F47D38F2D1DD30C2E01C0880FD5
:1003E0000A94EAF7182B60E0802F3CD3219780F71E
:1003F000812FDF91CF911F910F91FF9008950F935F
:100400001F93CF93DF93EC0188819981009729F0A6
:100410002A813B812617370788F48B016F5F7F4F56
:100420000E946F18009761F0998388831B830A8369
:100430002C813D81232B11F4FC01108281E001C04D
:1004400080E0DF91CF911F910F910895CF92DF92BD
:10045000EF92FF920F931F93CF93DF936C017A017A
:100460008B01C0E0D0E0CE15DF0589F0D8016D9199
:100470008D01D601ED91FC910190F081E02DC60136
:100480001995892B11F47E0102C02196ECCFC7018A
:10049000DF91CF911F910F91FF90EF90DF90CF9060
:1004A0000895FC01A089B1898C91A689B78982FD44
:1004B0000FC09C91818D8F5F8F73228D821749F0C1
:1004C000218DDF01A20FB11D5D969C93818F089550
:1004D0008C910895089580E090E00895FC01538D7B
:1004E000448D252F30E0842F90E0821B930B54170E
:1004F00010F0CF96089501970895FC01918D828D9B
:10050000981761F0828DDF01A80FB11D5D968C9167
:10051000928D9F5F9F73928F90E008958FEF9FEF72
:100520000895FC01918D828D981731F0828DE80F2E
:10053000F11D858D90E008958FEF9FEF0895FC01E8
:10054000918D228D892F90E0805C9F4F821B9109B5
:100550008F739927089580ED92E0F1DF21E0892BD8
:1005600009F420E0822F08958DE693E0E8DF21E092
:10057000892B09F420E0822F0895FC01848DDF018E
:10058000A80FB11DA35ABF4F2C91848D90E0019606
:100590008F739927848FA689B7892C93A089B189F5
:1005A0008C9180648C93938D848D981306C00288FF
:1005B000F389E02D80818F7D80830895EF92FF92F3
:1005C0000F931F93CF93DF93EC0181E0888F9B8D76
:1005D0008C8D981305C0E889F989808185FD23C039
:1005E000F62E0B8D10E00F5F1F4F0F731127E02EBB
:1005F0008C8DE8120BC00FB607FCFACFE889F98999
:10060000808185FFF5CFCE01B8DFF2CF8B8DFE0163
:10061000E80FF11DE35AFF4FF0820B8FEA89FB8947
:100620008081806207C0EE89FF896083E889F9894B
:1006300080818064808381E090E0DF91CF911F9181
:100640000F91FF90EF900895CF93DF93EC01888D89
:100650008823C1F0EA89FB89808185FD05C0A889CE
:10066000B9898C9186FD0EC00FB607FCF5CF80814D
:1006700085FFF2CFA889B9898C9185FFEDCFCE0196
:100680007CDFE8CFDF91CF91089580E090E0892B67
:1006900019F06ADF811120C080E090E0892B19F009
:1006A0005ADF81111CC080E090E0892B41F080E08E
:1006B00090E0892B21F00E940000811113C080E09E
:1006C00090E0892BA1F080E090E0892B81F00E94DE
:1006D000000081110AC008950E940000DDCF0E9431
:1006E0000000E1CF0E940000EACF0C9400000895C2
:1006F00090E0FC013197E231F10508F04EC0882707
:10070000EE58FF4F8F4F0C942617809180008F7703
:1007100003C0809180008F7D809380000895809138
:100720008000877FF9CF84B58F7702C084B58F7D35
:1007300084BD08958091B0008F7703C08091B00090
:100740008F7D8093B0000895809190008F7707C0CF
:10075000809190008F7D03C080919000877F80936F
:10076000900008958091A0008F7707C08091A0002D
:100770008F7D03C08091A000877F8093A0000895A3
:10078000809120018F7707C0809120018F7D03C069
:1007900080912001877F8093200108950C94D717C2
:1007A000AF92BF92CF92DF92EF92FF920F931F937F
:1007B000CF93DF93FC01C381D481209751F02C812A
:1007C0003D81AB01420F531FEA81FB81E417F5071E
:1007D00008F5FC01E580F6805B016E157F0508F4E5
:1007E00057016B018C01C50106960E9442170097C4
:1007F000B9F0FC01B382A282D183C083F801948353
:100800008383EE0CFF1CF682E582FC01D582C48254
:10081000069606C0C90106965D834C838C0F9D1F0A
:10082000DF91CF911F910F91FF90EF90DF90CF90CC
:10083000BF90AF900895CF93DF93EC0188819981A9
:10084000009711F00E94D717198218821D821C820E
:100850001B821A82DF91CF910895EF92FF920F933E
:100860001F93CF93DF93EC01198218821B821A82A7
:100870001D821C826115710511F18B01FB01019034
:100880000020E9F731977F01E61AF70AB701B7DDD3
:10089000811108C0CE01DF91CF911F910F91FF9080
:1008A000EF90C9CFFD82EC82B80188819981DF91F8
:1008B000CF911F910F91FF90EF900C946919DF91E8
:1008C000CF911F910F91FF90EF9008951F920F927B
:1008D0000FB60F9211240BB60F922F933F934F93A5
:1008E0005F936F937F938F939F93AF93BF93EF9398
:1008F000FF9380ED92E041DEFF91EF91BF91AF91C8
:100900009F918F917F916F915F914F913F912F9127
:100910000F900BBE0F900FBE0F901F9018951F9257
:100920000F920FB60F9211240BB60F922F933F9395
:100930004F935F936F937F938F939F93AF93BF93E7
:10094000EF93FF9380ED92E0ACDDFF91EF91BF91CB
:10095000AF919F918F917F916F915F914F913F9157
:100960002F910F900BBE0F900FBE0F901F901895F8
:100970001F920F920FB60F9211240BB60F922F9366
:100980003F934F935F936F937F938F939F93AF9317
:10099000BF93EF93FF938DE693E0EFDDFF91EF912F
:1009A000BF91AF919F918F917F916F915F914F9187
:1009B0003F912F910F900BBE0F900FBE0F901F9085
:1009C00018951F920F920FB60F9211240BB60F922B
:1009D0002F933F934F935F936F937F938F939F9347
:1009E000AF93BF93EF93FF938DE693E05ADDFF91B2
:1009F000EF91BF91AF919F918F917F916F915F9197
:100A00004F913F912F910F900BBE0F900FBE0F9003
:100A10001F901895CF93DF93282F30E0F901EE5FF8
:100A2000FD4F8491F901E454FE4FD491F901EA5845
:100A3000FE4FC491CC2389F081115ADEEC2FF0E0F7
:100A4000EE0FFF1FE45AFE4FA591B491EC91ED23F8
:100A500081E090E021F480E002C080E090E0DF914E
:100A6000CF9108951F93CF93DF93282F30E0F901A2
:100A7000EE5FFD4F8491F901E454FE4FD491F901EA
:100A8000EA58FE4FC491CC23C1F0162F811130DEFD
:100A9000EC2FF0E0EE0FFF1FEE5BFE4FA591B4913F
:100AA0008FB7F894111105C09C91ED2FE095E923C3
:100AB00002C0EC91ED2BEC938FBFDF91CF911F9192
:100AC0000895CF92DF92EF92FF920F931F93CF93EF
:100AD000DF936C018B017A01EC01C05ADA4F8881F7
:100AE00087FF04C0FB011182108224C08CE08C9D22
:100AF00090018D9D300D11248881A901480F511D51
:100B000087FD5A9580919A0490E04817590794F40C
:100B10008881A901480F511D87FD5A95CA01FA0124
:100B2000EE0FFF1F8E0F9F1FFC01E65FFB4F8081C2
:100B300086FD19C088818F5F88838CE08C9D900131
:100B40008D9D300D11248881A901480F511D87FD0D
:100B50005A9580919A0490E048175907B4F4888117
:100B60008C303CF112C08881280F311D87FD3A95E9
:100B7000F901EE0FFF1F2E0F3F1FF901E65FFB4F3C
:100B8000808160E08F736EDFD5CFF8018081918125
:100B9000049680349C4918F480E49CE904C0F80170
:100BA000808191810496F701918380838FEF888300
:100BB00044C0F801408151818881B901680F711DDD
:100BC00087FD7A95CB01FB01EE0FFF1F8E0F9F1F54
:100BD000FC01E65FFB4F81819281840F951FF70135
:100BE000918380838881A901480F511D87FD5A9503
:100BF000CA01FA01EE0FFF1F8E0F9F1FFC01E65F77
:100C0000FB4F808186FF19C08881280F311D87FD29
:100C10003A95F901EE0FFF1F2E0F3F1FF901E65F16
:100C2000FB4F808161E08F73DF91CF911F910F9116
:100C3000FF90EF90DF90CF9015CFDF91CF911F9174
:100C40000F91FF90EF90DF90CF900895CF93DF93B7
:100C500090E0FC01E454FE4F2491FC01EA58FE4F61
:100C60008491882361F190E0880F991FFC01E85D71
:100C7000FE4FC591D491FC01EE5BFE4FA591B4915E
:100C8000611109C09FB7F8948881209582238883D9
:100C9000EC912E230BC0623061F49FB7F894388139
:100CA000822F809583238883EC912E2B2C939FBFDA
:100CB00006C08FB7F894E8812E2B28838FBFDF9171
:100CC000CF9108953FB7F89480916505909166059E
:100CD000A0916705B091680526B5A89B05C02F3F78
:100CE00019F00196A11DB11D3FBFBA2FA92F982F52
:100CF0008827820F911DA11DB11DBC01CD0142E0CD
:100D0000660F771F881F991F4A95D1F708951F9284
:100D10000F920FB60F9211242F933F938F939F93AF
:100D2000AF93BF9380919B0490919C04A0919D04EC
:100D3000B0919E043091640523E0230F2D3720F4F9
:100D40000196A11DB11D05C026E8230F0296A11D25
:100D5000B11D2093640580939B0490939C04A09301
:100D60009D04B0939E048091650590916605A091C5
:100D70006705B09168050196A11DB11D80936505B9
:100D800090936605A0936705B0936805BF91AF91F6
:100D90009F918F913F912F910F900FBE0F901F90B9
:100DA00018951F920F920FB60F9211240BB60F9247
:100DB0002F933F934F935F936F937F938F939F9363
:100DC000AF93BF93EF93FF9348E251E064E271E089
:100DD00080E090E076DEFF91EF91BF91AF919F911F
:100DE0008F917F916F915F914F913F912F910F90D4
:100DF0000BBE0F900FBE0F901F9018951F920F9271
:100E00000FB60F9211240BB60F922F933F934F936F
:100E10005F936F937F938F939F93AF93BF93EF9362
:100E2000FF9348EA50E064EA70E083E090E049DE36
:100E3000FF91EF91BF91AF919F918F917F916F91B2
:100E40005F914F913F912F910F900BBE0F900FBE6E
:100E50000F901F9018951F920F920FB60F921124AA
:100E60000BB60F922F933F934F935F936F937F93A4
:100E70008F939F93AF93BF93EF93FF9348E950E015
:100E800064E970E082E090E01CDEFF91EF91BF9199
:100E9000AF919F918F917F916F915F914F913F9112
:100EA0002F910F900BBE0F900FBE0F901F901895B3
:100EB0001F920F920FB60F9211240BB60F922F9321
:100EC0003F934F935F936F937F938F939F93AF93D2
:100ED000BF93EF93FF9348E850E064E870E081E04F
:100EE00090E0EFDDFF91EF91BF91AF919F918F91D6
:100EF0007F916F915F914F913F912F910F900BBE1A
:100F00000F900FBE0F901F901895DF92EF92FF92F7
:100F10000F931F93CF93DF93EC018B817BDD892BA4
:100F2000E1F76A818B814ADA082F6A818B8146DA80
:100F3000182F6A818B8142DAD82EE12CF12C2C817A
:100F400030E0E216F30650F461E08A818BDD60E068
:100F50008A8188DD2FEFE21AF20AF1CF812F90E02B
:100F6000A0E0B0E0BA2FA92F982F8827A02BAC01C2
:100F7000BD014D29802F880F880B90E0A0E0B0E0E4
:100F8000B82FAA27992788278A019B01082B192B9C
:100F90002A2B3B2BC901B801DF91CF911F910F91F3
:100FA000FF90EF90DF9008950895FC01DB018D9193
:100FB000BD01882361F0AEE7B2E09C91992389F0EE
:100FC00011969C911197981741F01296F6CF828155
:100FD00093810196938382830895828193810296FF
:100FE00003C082819381019693838283DFCFFB01CB
:100FF00001900020E9F73197E61BF70BDC012D91FA
:101000003C911197E20FF31FED93FC9308950F931A
:101010001F93CF93DF93CDB7DEB766970FB6F894E3
:10102000DEBF0FBECDBF8C01CB011E8AFE017696BE
:101030002AE030E0B9010E94131790E3980F9293D1
:10104000CB010097B9F7BF01C8010296D0DF6696C1
:101050000FB6F894DEBF0FBECDBFDF91CF911F91C9
:101060000F9108952F923F924F925F926F927F92CD
:101070008F929F92AF92BF92CF92DF92EF92FF92A8
:101080000F931F93CF93DF9300D000D0CDB7DEB77F
:101090009E838D836A017B0186E0AD81BE811A96B5
:1010A0008C9320E836E948E15BE4C701B6010E9471
:1010B000031787FD2FC0A12CB12C00E210E0212CDA
:1010C000312CF501EA5AFD4F248935894689578923
:1010D000C701B6010E94031787FD0FC0F501E25C4E
:1010E000FD4F2489358946895789C701B6010E9479
:1010F000F4146B017C01200E311E15950795B4E0A8
:10110000AB1AB108E8EEAE16EFEFBE06D1F69924A1
:101110009A9406C000E210E035E0932E212C312C89
:1011200020E030E0A901C701B6010E94031718169C
:1011300094F52CEA35EC47E257E3C701B6010E946B
:101140008F14181644F19FEF991629F1F92D84E0B8
:10115000F80250011124F501EA5DFD4F2081318133
:1011600042815381C701B6010E948F1487FF0FC0CF
:10117000F501EA5AFD4F2081318142815381C70137
:10118000B6010E94F4146B017C01201A310A1595F6
:1011900007959A94D8CFAD81BE8119963C922E9234
:1011A0001897C701B6010E94D71669837A838B838B
:1011B0009C83ED81FE8160837183828393832B0105
:1011C0003C0190E4892E92E4992E9FE0A92EB12C47
:1011D000BAE04B16510461047104E8F0C501B40192
:1011E0002AE030E040E050E00E94D41549015A0165
:1011F000AD81BE811A968C911A9781501A968C9364
:10120000C301B2012AE030E040E050E00E94D41572
:1012100029013A01DDCF69817A818B819C810E940D
:1012200093149B01AC01C701B6010E9405166B0126
:101230007C01C501B4010E9493149B01AC01C7015C
:10124000B6010E94F4142B013C010E94D7166B01D9
:101250007C010E9493149B01AC01C301B2010E9466
:1012600005169B01AC010E9406160E94D716C60EF9
:10127000D71EE81EF91EC814D904EA04FB0438F48A
:10128000ED81FE81C482D582E682F7822FC0AD81D6
:10129000BE8114961D921D921D921C9217978981F2
:1012A0009A81AB81BC810196A11DB11DED81FE81AA
:1012B00080839183A283B38321143104B9F00A9708
:1012C000A105B10598F0FFEF2F1A3F0AAD81BE814D
:1012D00019963C922E92189781E090E0A0E0B0E041
:1012E000ED81FE8180839183A283B3838AE0C82E3F
:1012F000D12CE12CF12CED81FE81648175818681F8
:101300009781A70196010E94D415672B682B692B42
:1013100091F4AD81BE811A968C91181664F4AD815A
:10132000BE8114962D933D934D935C9317978150F6
:101330001A968C93E0CF26960FB6F894DEBF0FBEB8
:10134000CDBFDF91CF911F910F91FF90EF90DF9074
:10135000CF90BF90AF909F908F907F906F905F9055
:101360004F903F902F900895CF93DF93DC01ED9144
:10137000FC9142815381DB01C281D3812081318183
:10138000C217D30778F0188222813381241B350BD2
:10139000FC0142815381240F351F33832283DF9167
:1013A000CF9108952C91222371F39E012F5F3F4F1F
:1013B000338322832D912883DFCF0F931F93CF9305
:1013C000DF93CDB7DEB766970FB6F894DEBF0FBEDA
:1013D000CDBF8C01CB011E8AFE0176962AE030E05B
:1013E000B9010E94131790E3980F9293CB010097D5
:1013F000B9F7BF01C801B8DF66960FB6F894DEBF33
:101400000FBECDBFDF91CF911F910F9108958F92A5
:101410009F92AF92BF92EF92FF920F931F93CF9341
:10142000DF93CDB7DEB766970FB6F894DEBF0FBE79
:10143000CDBF7C011E8A8E010A5E1F4F8AE0882E76
:10144000912CA12CB12CCB01BA01A50194010E94D1
:10145000D415942F852F605DF80162938F01A90147
:10146000692F782F411551056105710561F7BF019D
:10147000C7017ADF66960FB6F894DEBF0FBECDBF08
:10148000DF91CF911F910F91FF90EF90BF90AF90A0
:101490009F908F900895CF93DF93DC01ED91FC91A5
:1014A0001197C281D38180819181C817D90760F4D7
:1014B000CE0101969383828368830280F381E02DBD
:1014C000108221E030E002C020E030E012968D91E1
:1014D0009C911397280F391F13963C932E931297C4
:1014E000DF91CF9108958F929F92AF92BF92EF922A
:1014F000FF920F931F93CF93DF93CDB7DEB766971D
:101500000FB6F894DEBF0FBECDBF7C011E8A8E01E0
:101510000A5E1F4F8AE0882E912CA12CB12CCB01A2
:10152000BA01A50194010E94D415942F852F605D06
:10153000F80162938F01A901692F782F4115510598
:101540006105710561F7BF01C701029650DD66961E
:101550000FB6F894DEBF0FBECDBFDF91CF911F91C4
:101560000F91FF90EF90BF90AF909F908F90089554
:10157000FF920F931F93CF93DF936115710541F491
:101580006DE872E0DF91CF911F910F91FF90ECCE4B
:101590008B01EC0162E2CE017EDFF80161918F01E7
:1015A000662351F0EEE7F2E0F080FF20A1F3918195
:1015B000961751F03296F8CF62E2CE01DF91CF91CB
:1015C0001F910F91FF9067CF6CE5CE0164DF6F2D07
:1015D000E2CF0F931F93CF93DF938C01EB016BE767
:1015E000CE0159DFF801028113810115110591F037
:1015F000F80162817381CE01BBDF6AE3CE014BDF6C
:10160000BE01C801049611D0F801008111810115B5
:10161000110539F46DE7CE01DF91CF911F910F9144
:101620003ACF6CE2CE0137DFE0CF4F925F926F92FC
:101630007F92AF92BF92CF92DF92EF92FF920F9381
:101640001F93CF93DF93CDB7DEB76B970FB6F894A8
:10165000DEBF0FBECDBFDC01ED91FC91119731973C
:10166000E830F10508F0DFC08B017C018827EC57DA
:10167000FF4F8F4F0C942617FD01C280D380E4806A
:10168000F580A7019601C701B6010E948F14882337
:1016900019F06DE972E073C020E030E0A901C701E4
:1016A000B6010E948F1487FF07C06DE2C801F3DE08
:1016B000F7FAF094F7F8F09420E030E0A901C701C0
:1016C000B6010E948F14882309F45CC0A70196011B
:1016D000C701B6010E940616A70196010E948F1449
:1016E000811150C064EA72E04AC01296ED90FC90FD
:1016F00013976BE5C801CFDEF701E280F380E114B8
:10170000F10451F0B801C70102968FDFD701ED90C7
:10171000FC90E114F10421F46DE5C801BCDE83C046
:101720006CE2C801B8DEEBCFFD018281938151DF0D
:101730007AC012966D917C911397C80119DF73C01E
:10174000FD01628173811BC06DE2C801A4DED70177
:1017500012964D915D916D917C911597C80157DE60
:1017600062C0FD0182819381A481B581892B8A2B7E
:101770008B2B19F467E972E002C062E972E0C801DC
:10178000F3DD51C0B701A601CE0141966BDC49895A
:101790005A896B897C89C8013ADEBB8CBB2041F138
:1017A0006D897E898F89988D188AAB2C6E01F0E146
:1017B000CF0ED11C76012AE0422E512C612C712CC7
:1017C000AA94BFEFAB1659F0A30192010E94D41561
:1017D000605DD6016E936D01B901CA01F1CFB70109
:1017E0006B1971098EE2FB018293BF01C801BCDD58
:1017F000898D9A8D97FF0BC061EA72E0C801B4DD54
:10180000698D7A8D719561957109C801D6DD898DD3
:101810009A8D181619063CF465E6C8013CDE698D00
:101820007A8DC801CADD6B960FB6F894DEBF0FBE85
:10183000CDBFDF91CF911F910F91FF90EF90DF907F
:10184000CF90BF90AF907F906F905F904F90089532
:10185000EF92FF920F931F93CF93DF93EB012A81B7
:101860003B812F5F3F4F3B832A83FC010281138121
:101870007B01F2E0EF0EF11C0115110511F1F801E9
:10188000628173816115710529F46DE872E0C70109
:10189000AEDB07C08A819B8101969B838A83CE0140
:1018A00084DB2A813B812F5F3F4F3B832A83BE012C
:1018B000C801049619D0F8010081118101151105A4
:1018C00061F48A819B8101969B838A83DF91CF910A
:1018D0001F910F91FF90EF9008952A813B812F5F18
:1018E0003F4F3B832A83C8CF4F925F926F927F9284
:1018F000AF92BF92CF92DF92EF92FF920F931F931E
:10190000CF93DF93CDB7DEB76B970FB6F894DEBFFA
:101910000FBECDBFDC01ED91FC9111973197E830FE
:10192000F10508F00BC18B018827E457FF4F8F4F5B
:101930000C9426171296CD90DD90ED90FC901597A3
:10194000A7019601C701B601EAD7882319F06DE90E
:1019500072E098C020E030E0A901C701B601DFD7EE
:1019600087FF0AC0F8018281938101969383828365
:10197000F7FAF094F7F8F09420E030E0A901C701FD
:10198000B601CDD7882309F481C0A7019601C7010C
:10199000B6010E940616A7019601C1D7811176C033
:1019A00064EA72E06FC01296ED91FC911397DB012F
:1019B00012968D919C911397019613969C938E93FA
:1019C0001297E280F380E114F10451F0B801C701ED
:1019D00002968ADFF701E080F180E114F10459F406
:1019E000D80112968D919C911397019613969C9312
:1019F0008E931297A3C0F8018281938101969383FD
:101A00008283E1CF12968D919C91139721DF96C02E
:101A100012966D917C9113976115710519F46DE81B
:101A200072E030C0D80112968D919C911397019667
:101A300013969C938E931297C801B7DA7FC01296C3
:101A40006D917C9113971EC0FB0182819381019659
:101A50009383828312964D915D916D917C91159740
:101A6000C80141DD6BC012968D919D910D90BC9186
:101A7000A02D892B8A2B8B2B19F467E972E002C009
:101A800062E972E0C8010296B2DA58C0B701A60155
:101A9000CE014196E7DA49895A896B897C89C80168
:101AA00022DDBB8CBB2049F16D897E898F89988DA1
:101AB000188AAB2C6E01F0E1CF0ED11C76012AE022
:101AC000422E512C612C712CAA94BFEFAB1659F009
:101AD000A30192010E94D415605DD6016E936D0141
:101AE000B901CA01F1CFB7016B1971098EE2FB018F
:101AF0008293BF01C80102967ADA898D9A8D97FF89
:101B00000CC061EA72E0C801029671DA698D7A8DC3
:101B1000719561957109C8017ADA698D7A8D161609
:101B2000170664F4D80112968D919C911397019633
:101B300013969C938E931297C80169DA6B960FB631
:101B4000F894DEBF0FBECDBFDF91CF911F910F91F3
:101B5000FF90EF90DF90CF90BF90AF907F906F900D
:101B60005F904F900895DB01109749F0ED91FC9143
:101B700011970190F081E02DBC01CD01199480E016
:101B800090E008950F931F93CF93DF93EC018B01A7
:101B90006881798188E090E0E6DFFC01892B21F003
:101BA0001182108213821282AA81BB81109751F098
:101BB0008D919C911197009711F0DC01F9CFED9375
:101BC000FC9302C0FB83EA833097E9F0D8018D9142
:101BD0009C9197FD07C0092E000CAA0BBB0B24E0BB
:101BE00030E009C0919581959109092E000CAA0B4E
:101BF000BB0B25E030E03383228384839583A68367
:101C0000B78381E001C080E0DF91CF911F910F91F8
:101C100008956115710579F0FB0101900020E9F745
:101C20003197AF01461B570BDC01ED91FC9102800F
:101C3000F381E02D199480E090E008957F928F92D7
:101C40009F92AF92BF92CF92DF92EF92FF920F934B
:101C50001F93CF93DF93CDB7DEB72E970FB6F894CF
:101C6000DEBF0FBECDBF8C017B016A018AE0782EFA
:101C7000812C912C5401C80148D9860E971EA81EAC
:101C8000B91E7A947110F7CFC501B4012AE030E093
:101C900040E050E05DD7F80185819681A781B0854D
:101CA00049015A01881A990AAA0ABB0AC501B40156
:101CB0003CD6F80121853285438554850E946A16F9
:101CC0000E94D2164B015C01F601718360831A8673
:101CD00019861C861B861E861D86F70100811181D0
:101CE00001151105A9F0E480F580B701CE01099630
:101CF0000E94FF01811105C0CE0109960E941B04BC
:101D000007C0FE86ED86B80189859A850E9469190B
:101D10000D851E85065F1F4FB801CE0109960E94F2
:101D2000FF01882309F45CC029853A858D859E854D
:101D30006DEA72E0820F931F0E9469191E870D875A
:101D40004AE0CE0101967C01BC01C401B5D5F70182
:101D500001900020E9F73197EE19FF090D851E85E6
:101D60003097C9F00E0F1F1FB801CE0109960E94CF
:101D7000FF01882361F029853A858D859E85B7010D
:101D8000820F931F0E9469191E870D8704C0CE0120
:101D900009960E941B044D855E8569857A858DE6CE
:101DA00093E00E94260269E772E08DE693E031DF5E
:101DB00089859A850E94D7172E960FB6F894DEBFB4
:101DC0000FBECDBFDF91CF911F910F91FF90EF908C
:101DD000DF90CF90BF90AF909F908F907F900895AD
:101DE000CE0109960E941B04ABCFCF92DF92EF92F7
:101DF000FF920F931F93CF93DF93EC01842F680121
:101E000079014A836B8361E00E94260660E08B8142
:101E10000E94260681E08C8360E08A810E94320560
:101E2000CE0173D868EB72E08DE693E0F2DE69E7ED
:101E300072E08DE693E0EDDEC986DA86EB86FC86FD
:101E40001AE0C12CD12C7601CE015FD8C60ED71E68
:101E5000E81EF91E1150C1F7C701B6012AE030E0B3
:101E600040E050E075D6CA01B9015FD59BD76D83BC
:101E70007E838F839887DF91CF911F910F91FF9081
:101E8000EF90DF90CF9008951092D3021092D2027B
:101E900048EE53E060E070E04093D4025093D502E6
:101EA0006093D6027093D70280E192E09093D102C2
:101EB0008093D0022DEC30E03093DD022093DC02E1
:101EC0002CEC30E03093DF022093DE0228EC30E08F
:101ED0003093E1022093E00229EC30E03093E302FA
:101EE0002093E2022AEC30E03093E5022093E402F2
:101EF0002EEC30E03093E7022093E6021092E902E4
:101F00001092EA021092EB021092EC02109270030F
:101F100010926F03409371035093720360937303A5
:101F20007093740390936E0380936D0385EC90E03F
:101F300090937A038093790384EC90E090937C03F0
:101F400080937B0380EC90E090937E0380937D03ED
:101F500081EC90E09093800380937F0382EC90E08B
:101F6000909382038093810386EC90E090938403A6
:101F70008093830310928603109287031092880344
:101F80001092890367EB72E082ED94E00E942D04C9
:101F900067EB72E088ED94E00E942D0467EB72E03D
:101FA00084EC94E00E942D0467EB72E08AEC94E0EC
:101FB0000E942D042FB7F89480919B0490919C046B
:101FC000A0919D04B0919E042FBF8093C004909374
:101FD000C104A093C204B093C3048093BC04909343
:101FE000BD04A093BE04B093BF0480919A048033D3
:101FF000A0F491E0980F90939A048093B90490E034
:10200000FC01EE0FFF1F8E0F9F1FFC01E65FFB4FD1
:1020100088EB9BE09283818303C08FEF8093B904A8
:1020200022E232E03093AD042093AC041092B1046C
:102030001092B2041092B3041092B40480E090E0C5
:10204000A0E8BFE38093B5049093B604A093B704CF
:10205000B093B8043093A00420939F041092A4047A
:102060001092A5041092A6041092A7048093A804CD
:102070009093A904A093AA04B093AB040895CF93BE
:10208000DF93CDB7DEB7E1970FB6F894DEBF0FBE92
:10209000CDBF789484B5826084BD84B5816084BDF1
:1020A00085B5826085BD85B5816085BD80916E00F6
:1020B000816080936E001092810080918100826027
:1020C0008093810080918100816080938100809164
:1020D00080008160809380008091B1008460809353
:1020E000B1008091B00081608093B0008091910038
:1020F0008260809391008091910081608093910033
:10210000809190008160809390008091A100826016
:102110008093A1008091A10081608093A1008091B3
:10212000A00081608093A000809121018260809353
:102130002101809121018160809321018091200102
:1021400081608093200180917A00846080937A007E
:1021500080917A00826080937A0080917A00816019
:1021600080937A0080917A00806880937A00109240
:10217000C100E0917D03F0917E0322E02083E09195
:102180007903F0917A031082E0917B03F0917C0354
:1021900080E1808310928503E0918103F0918203B6
:1021A00096E09083E0917F03F091800380818061CD
:1021B0008083E0917F03F091800380818860808339
:1021C000E0917F03F0918003808180688083E091BB
:1021D0007F03F091800380818F7D8083E091E00216
:1021E000F091E1022083E091DC02F091DD021082A7
:1021F000E091DE02F091DF028FEC80831092E80222
:10220000E091E402F091E5029083E091E202F09126
:10221000E302808180618083E091E202F091E30239
:10222000808188608083E091E202F091E302808106
:1022300080688083E091E202F091E30280818F7DEB
:10224000808361E08CE20E94260661E08BE00E94C0
:1022500026068091B904803308F051C061E08CE01B
:102260000E9426068091B904E82FF0E09F01220F1A
:10227000331FE20FF31FE65FFB4F9081907C9C6061
:1022800090831092BA041092BB046CE0C0D59CE01D
:10229000899FB001112440E050E09A01260F371FBA
:1022A000F901EE0FFF1F2E0F3F1FF901E65FFB4FF5
:1022B000908196FD17C04F5F5F4F4C30510569F715
:1022C000813009F099C21092800082E080938100F1
:1022D0001092850010928400B19A80916F00826004
:1022E00080936F00E091B904F0E0CF01880F991F4F
:1022F000E80FF91FE65FFB4F80818064808380E0F8
:1023000090E00E94580100E010E82EE034E446E33B
:1023100050E067E370E08CEA94E067DD00E010E0F5
:1023200022E034E448E350E069E370E08FE994E0B0
:102330005CDD22E2222E22E0322EDE0111965D01CA
:102340004E01B8E28B0E911C3AE0432E512C612CC9
:10235000712C2FB7F89480919B0490919C04A091CC
:102360009D04B0919E042FBF8093C0049093C1043C
:10237000A093C204B093C3044091BC045091BD0427
:102380006091BE047091BF0448515C4F6F4F7F4F06
:10239000481759076A077B070CF00CC28093BC04EE
:1023A0009093BD04A093BE04B093BF046EE672E0A8
:1023B000CE0182960E942D043A8229828091AE0439
:1023C0008B838091AF048C838091B0048D83809146
:1023D000B1049091B204A091B304B091B4048E837F
:1023E0009F83A887B9878091B5049091B604A09186
:1023F000B704B091B8048A879B87AC87BD874EE548
:1024000055E0BE016E5D7F4FC50118DC8AA19BA11E
:10241000CED50E9462069B01AC0194EFC92EDD244B
:10242000D394E12CF12C2EA73FA748AB59AB0E94C7
:1024300062062EA53FA548A959A9DC01CB01821B44
:10244000930BA40BB50B883E9340A105B10548F052
:10245000E1E0CE1AD108E108F10828513C4F4F4F76
:102460005F4FC114D104E104F104E9F663E772E0BF
:10247000CE0182960E942D043A8229828091A10485
:102480008B838091A2048C838091A3048D8380919F
:10249000A4049091A504A091A604B091A7048E83F2
:1024A0009F83A887B9878091A8049091A904A091DF
:1024B000AA04B091AB048A879B87AC87BD874CE5A3
:1024C00055E0BE016E5D7F4FC501B8DB8AA19BA1BF
:1024D0006ED580917B00886080937B0080E4809340
:1024E0007C0080917A00806480937A0080917A00E9
:1024F00086FDFCCF809178002091790090E0922BAE
:102500006C01092E000CEE08FF0897FF25C0E09132
:102510006D03F0916E030190F081E02D6DE28DE688
:1025200093E0199522273327A9012C193D094E095B
:102530005F0919A28E010F5D1F4FCA01B901A301E6
:10254000920132D3605DD8016E938D012115310562
:102550004105510591F714C0A701960119A28E01FA
:102560000F5D1F4FCA01B901A30192011DD3605D28
:10257000F80162938F01211531054105510591F74D
:10258000B8018DE693E045DB69E772E08DE693E004
:1025900040DB60E08091AE040E94320561E08091F2
:1025A000AE040E94320560E08091A1040E943205D1
:1025B00061E08091A1040E94320560E08091AE0448
:1025C0000E94320560E08091A1040E9432058AE0F9
:1025D00092E09A8389831D821C82A0E0B1E0BF83D0
:1025E000AE83B50184E090E0BEDA009739F0FC01DB
:1025F000B182A082138212827C0113C08091E40414
:1026000081110BC01092E1041092E0041092E304D7
:102610001092E20481E08093E40480EEE82E84E0EE
:10262000F82ED701CD90DC90C114D10481F48091B3
:10263000F004811167C01092ED041092EC04109226
:10264000EF041092EE0481E08093F0045BC0B601C9
:1026500084E090E088DA009739F0FC01D182C082F2
:10266000138212828C0111C08091F00481110BC081
:102670001092ED041092EC041092EF041092EE040C
:1026800081E08093F0040CEE14E0D7011296CD9017
:10269000DC901397C114D10409F4DAC0F601628109
:1026A00073816115710529F08CE792E009D6892BB9
:1026B00081F0D601CD90DC90EDCFD182C082C114E3
:1026C000D10411F18CE792E0D60113969C938E937E
:1026D0001297F80180819181892B19F480E090E0B4
:1026E00004C00CA71DA786E090E0D60115969C9328
:1026F0008E931497ECA51696EC931697FDA5179656
:10270000FC9302C00CEE14E06EE575E0C8013ADA05
:102710006CE575E0C80136DA9BA28AA21DA21CA254
:10272000BE016E5D7F4FC70193D88CA19DA18850DB
:102730009B4F99A788A788EF94E09BA78AA7109240
:10274000F8049BA28AA21DA21CA2BE016E5D7F4F4F
:10275000C7010E94E90A9BA28AA21DA21CA2BE0177
:102760006E5D7F4FC70174D8ECA1FDA1E850FB4F0F
:10277000118268EF74E080ED92E04BDA68EF74E06C
:102780008DE693E046DA69E772E08DE693E041DAA0
:10279000AAE0B2E0BA83A983EC81FD81309751F0C1
:1027A000828193819F838E8300811181CF01FFD32A
:1027B000F801F4CF80915E0590915F058536910513
:1027C0001CF080E090E002C084EB90E00E94580191
:1027D00080915C0590915D058536910514F060E06F
:1027E00001C061E08BE00E94320580ED92E00E9422
:1027F0009F020E944503ADCD823061F4109290009B
:1028000080939100109295001092940088BB809361
:10281000710068CD833069F41092A00082E080934B
:10282000A1001092A5001092A40089BB80937200B1
:1028300059CD811157CD1092200182E08093210162
:1028400010922501109224018ABB809373004ACD17
:10285000F701608171818AE090E085D96C01892B54
:1028600029F0F6011182108215821482D701129686
:10287000ED91FC911397309739F080819181009709
:1028800009F41BCFFC01F9CFF701D382C28217CF25
:10289000CF93DF93C4ECD4E08E819F8188D388816D
:1028A000998185D3C2EDD4E08E819F8180D38881C8
:1028B0009981DF91CF917BC3BB274A3031F49923B3
:1028C00022F4BDE2909581959F4F01C0BB27FB018B
:1028D0005527AA27880F991FAA1FA41710F0A41B19
:1028E00083955051B9F7A05DAA3308F0A95DA19373
:1028F000009779F7B111B1931192CB0100C0DC01BF
:10290000FC01672F71917723E1F7329704C07C9126
:102910006D9370836291AE17BF07C8F3089540D0DE
:1029200008F481E00895E89409C097FB3EF490957F
:102930008095709561957F4F8F4F9F4F9923A9F098
:10294000F92F96E9BB279395F69587957795679527
:10295000B795F111F8CFFAF4BB0F11F460FF1BC06B
:102960006F5F7F4F8F4F9F4F16C0882311F096E9FE
:1029700011C0772321F09EE8872F762F05C06623AC
:1029800071F096E8862F70E060E02AF09A95660F65
:10299000771F881FDAF7880F9695879597F908951E
:1029A000990F0008550FAA0BE0E8FEEF1616170660
:1029B000E807F907C0F012161306E407F50798F0C8
:1029C000621B730B840B950B39F40A2661F0232BE1
:1029D000242B252B21F408950A2609F4A140A6955D
:1029E0008FEF811D811D08950BD078C069D028F02C
:1029F0006ED018F0952309F05AC05FC01124A2C010
:102A00007ED0A0F3959FD1F3950F50E0551F629FA4
:102A1000F001729FBB27F00DB11D639FAA27F00D37
:102A2000B11DAA1F649F6627B00DA11D661F829F5E
:102A30002227B00DA11D621F739FB00DA11D621F43
:102A4000839FA00D611D221F749F3327A00D611D60
:102A5000231F849F600D211D822F762F6A2F112442
:102A60009F5750408AF0E1F088234AF0EE0FFF1F95
:102A7000BB1F661F771F881F91505040A9F79E3FCC
:102A8000510570F014C05EC05F3FECF3983EDCF37C
:102A9000869577956795B795F795E7959F5FC1F709
:102AA000FE2B880F911D9695879597F9089597F9B4
:102AB0009F6780E870E060E008959FEF80EC0895E4
:102AC00000240A941616170618060906089500240D
:102AD0000A9412161306140605060895092E039487
:102AE000000C11F4882352F0BB0F40F4BF2B11F4FB
:102AF00060FF04C06F5F7F4F8F4F9F4F089557FD5A
:102B00009058440F551F59F05F3F71F04795880F5B
:102B100097FB991F61F09F3F79F0879508951216F2
:102B200013061406551FF2CF4695F1DF08C016169E
:102B300017061806991FF1CF86957105610508944F
:102B40000895E894BB2766277727CB0197F9089566
:102B5000052E97FB16F400940FD057FD05D024D016
:102B600007FC02D046F408C0509540953095219559
:102B70003F4F4F4F5F4F08959095809570956195A9
:102B80007F4F8F4F9F4F089531D0A59F900DB49FD9
:102B9000900DA49F800D911D11240895B7FFF4CFCF
:102BA000F3DF821B930B0895A1E21A2EAA1BBB1B15
:102BB000FD010DC0AA1FBB1FEE1FFF1FA217B30709
:102BC000E407F50720F0A21BB30BE40BF50B661F1F
:102BD000771F881F991F1A9469F7609570958095E3
:102BE00090959B01AC01BD01CF010895A29FB0015A
:102BF000B39FC001A39F700D811D1124911DB29F31
:102C0000700D811D1124911D08955058BB27AA27CE
:102C10000ED064CF55DF30F05ADF20F031F49F3F03
:102C200011F41EF44ACF0EF4E095E7FB40CFE92FF4
:102C300066DF80F3BA17620773078407950718F0F9
:102C400071F49EF57ECF0EF4E0950B2EBA2FA02DD9
:102C50000B01B90190010C01CA01A0011124FF2749
:102C6000591B99F0593F50F4503E68F11A16F04044
:102C7000A22F232F342F4427585FF3CF4695379543
:102C80002795A795F0405395C9F77EF41F16BA0B08
:102C9000620B730B840BBAF09150A1F0FF0FBB1FB6
:102CA000661F771F881FC2F70EC0BA0F621F731FFF
:102CB000841F48F4879577956795B795F7959E3F5C
:102CC00008F0B3CF9395880F08F09927EE0F9795EA
:102CD000879508950CD002CFFADE40F0F1DE30F097
:102CE00021F45F3F19F0E3CE51112CCFE6CE07DF80
:102CF00098F39923C9F35523B1F3951B550BBB27C3
:102D0000AA2762177307840738F09F5F5F4F220F6F
:102D1000331F441FAA1FA9F333D00E2E3AF0E0E868
:102D200030D091505040E695001CCAF729D0FE2FB4
:102D300027D0660F771F881FBB1F26173707480746
:102D4000AB07B0E809F0BB0B802DBF01FF279358FC
:102D50005F4F2AF09E3F510568F0A9CEF3CE5F3F4A
:102D6000ECF3983EDCF3869577956795B795F795E4
:102D70009F5FC9F7880F911D9695879597F90895DC
:102D8000E1E0660F771F881FBB1F62177307840778
:102D9000BA0720F0621B730B840BBA0BEE1F88F787
:102DA000E095089504D06894B111CCCE0895AFDEBB
:102DB00088F09F5790F0B92F9927B751A0F0D1F024
:102DC000660F771F881F991F1AF0BA95C9F712C0AE
:102DD000B13081F0B6DEB1E00895B3CE672F782F21
:102DE0008827B85F39F0B93FCCF38695779567951A
:102DF000B395D9F73EF490958095709561957F4F86
:102E00008F4F9F4F0895CCDD08F48FEF0895991BE5
:102E100079E004C0991F961708F0961B881F7A95D1
:102E2000C9F78095089597FB072E16F4009406D0F5
:102E300077FD08D013D007FC05D03EF4909581951E
:102E40009F4F0895709561957F4F0895EE0FFF1F76
:102E5000881F8BBF0790F691E02D1994AA1BBB1B0E
:102E600051E107C0AA1FBB1FA617B70710F0A61B8A
:102E7000B70B881F991F5A95A9F780959095BC01AB
:102E8000CD010895CF93DF938230910510F482E055
:102E900090E0E0916B05F0916C0520E030E0C0E03F
:102EA000D0E0309711F14081518148175907C0F0A7
:102EB0004817590761F482819381209719F09B8309
:102EC0008A832BC090936C0580936B0526C02115D7
:102ED000310519F04217530718F49A01BE01DF01BA
:102EE000EF010280F381E02DDCCF2115310509F1DE
:102EF000281B390B2430310590F412968D919C914A
:102F000013976115710521F0FB019383828304C03F
:102F100090936C0580936B05FD01329644C0FD01D2
:102F2000E20FF31F81939193225031092D933C932B
:102F30003AC02091690530916A05232B41F4209114
:102F400002023091030230936A05209369052091B3
:102F50000002309101022115310541F42DB73EB731
:102F60004091040250910502241B350BE091690544
:102F7000F0916A05E217F307A0F42E1B3F0B281708
:102F8000390778F0AC014E5F5F4F2417350748F0E2
:102F90004E0F5F1F50936A0540936905819391938B
:102FA00002C0E0E0F0E0CF01DF91CF9108950F93F0
:102FB0001F93CF93DF93009709F48CC0FC013297E5
:102FC0001382128200916B0510916C050115110599
:102FD00081F420813181820F931F20916905309106
:102FE0006A052817390779F5F0936A05E0936905B2
:102FF00071C0D80140E050E0AE17BF0750F4129600
:103000002D913C911397AD012115310509F1D9019D
:10301000F3CF9D01DA013383228360817181860FB2
:10302000971F8217930769F4EC0128813981260FD5
:10303000371F2E5F3F4F318320838A819B8193838B
:103040008283452B29F4F0936C05E0936B0542C015
:103050001396FC93EE931297ED01499159919E01BD
:10306000240F351FE217F30771F480819181840FDB
:10307000951F029611969C938E938281938113964D
:103080009C938E931297E0E0F0E0D80112968D9118
:103090009C911397009719F0F8018C01F6CF8D9150
:1030A0009C9198012E5F3F4F820F931F20916905DD
:1030B00030916A052817390769F4309729F410927E
:1030C0006C0510926B0502C01382128210936A0580
:1030D00000936905DF91CF911F910F9108956F9231
:1030E0007F928F929F92AF92BF92CF92DF92EF9298
:1030F000FF920F931F93CF93DF93EC01009781F41E
:10310000CB01DF91CF911F910F91FF90EF90DF9056
:10311000CF90BF90AF909F908F907F906F90B2CEE6
:10312000FC01E60FF71F9C0122503109E217F3075B
:1031300008F4A8C0D9010D911C9111970617170723
:10314000A8F00530110508F49BC0C8010497861744
:10315000970708F495C002501109061B170B01933D
:1031600011936D937C93CF0122DF8AC05B01A01A7B
:10317000B10A4C01800E911EA0916B05B0916C05B7
:1031800040E050E0E12CF12C109709F44AC0A8155A
:10319000B905D1F56D907C901197630182E0C80E5E
:1031A000D11CCA14DB0480F1A3014A195B096A012E
:1031B00082E0C80ED11C1296BC9012971396AC9167
:1031C000B5E0CB16D10440F0B282A3835183408393
:1031D000D9016D937C930AC00E5F1F4FC301800F0E
:1031E000911FF90191838083EB2DFA2FE114F104F3
:1031F00031F0D7011396FC93EE93129741C0F093F0
:103200006C05E0936B053CC08D919C91119748171C
:10321000590708F4AC017D0112960D90BC91A02DC8
:10322000B3CF8091690590916A0588159905E1F4FD
:1032300046175707C8F48091000290910102009749
:1032400041F48DB79EB74091040250910502841B52
:10325000950BE817F907B0F4F0936A05E093690558
:10326000F901718360830CC0CB010CDE7C010097F7
:1032700049F0A801BE011BD0CE0199DEC70104C0F0
:10328000CE0102C080E090E0DF91CF911F910F91BD
:10329000FF90EF90DF90CF90BF90AF909F908F9076
:1032A0007F906F90089581E090E0F89419C0FB0141
:1032B000DC0102C001900D9241505040D8F70895B2
:1032C000FB01DC018D91019080190110D9F3990B5C
:1032D0000895FB01DC0101900D920020E1F70895B3
:1032E00011E0C5E2D1E000E005C0802FFE01AEDDB7
:1032F0002196011DC632D10780E00807B1F7F89486
:02330000FFCFFD
:1033020000006D05800000000000D00300000000F6
:10331200DE0226026E0224039F027D029102000059
:103322000000D407CE030000803FCDCCCC3D6F120D
:10333200833A95BFD6337D1D9026B3CE010CCDCCFA
:10334200CC3D0AD7233C17B7D13877CC2B32959591
:10335200E6241FB14F0A000020410000C84200408D
:103362001C4620BCBE4CCA1B0E5AAEC59D746D6570
:10337200616C007761746572000D0A007000222290
:103382005C5C6208660C6E0A720D7409006E756CE4
:103392006C00747275650066616C7365004E614EF7
:1033A20000652D00496E66696E6974790020617648
:1033B20065726167653A0900496E697469616C6991
:1033C2007A696E6720746865207363616C650000BA
:020000023000CC
:10E000000D9489F10D94B2F10D94B2F10D94B2F129
:10E010000D94B2F10D94B2F10D94B2F10D94B2F1F0
:10E020000D94B2F10D94B2F10D94B2F10D94B2F1E0
:10E030000D94B2F10D94B2F10D94B2F10D94B2F1D0
:10E040000D94B2F10D94B2F10D94B2F10D94B2F1C0
:10E050000D94B2F10D94B2F10D94B2F10D94B2F1B0
:10E060000D94B2F10D94B2F10D94B2F10D94B2F1A0
:10E070000D94B2F10D94B2F10D94B2F10D94B2F190
:10E080000D94B2F10D94B2F10D94B2F10D94B2F180
:10E090000D94B2F10D94B2F10D94B2F10D94B2F170
:10E0A0000D94B2F10D94B2F10D94B2F10D94B2F160
:10E0B0000D94B2F10D94B2F10D94B2F10D94B2F150
:10E0C0000D94B2F10D94B2F10D94B2F10D94B2F140
:10E0D0000D94B2F10D94B2F10D94B2F10D94B2F130
:10E0E0000D94B2F141546D656761323536300041AF
:10E0F000726475696E6F206578706C6F72657220DE
:10E1000073746B3530305632206279204D4C530099
:10E11000426F6F746C6F616465723E004875683F52
:10E1200000436F6D70696C6564206F6E203D200048
:10E130004350552054797065202020203D20005FF9
:10E140005F4156525F415243485F5F3D2000415658
:10E1500052204C696243205665723D20004743437C
:10E160002056657273696F6E203D20004350552024
:10E1700049442020202020203D20004C6F7720663D
:10E18000757365202020203D20004869676820665F
:10E190007573652020203D200045787420667573D6
:10E1A00065202020203D20004C6F636B2066757336
:10E1B000652020203D20004D617220203720323024
:10E1C000313300312E362E3800342E332E350056A2
:10E1D00023202020414444522020206F7020636F70
:10E1E00064652020202020696E73747275637469E1
:10E1F0006F6E2061646472202020496E74657272B3
:10E20000757074006E6F20766563746F7200726A49
:10E210006D702020006A6D70200057686174207056
:10E220006F72743A00506F7274206E6F7420737541
:10E2300070706F72746564004D7573742062652030
:10E2400061206C6574746572002000577269747483
:10E25000696E672045450052656164696E672045B7
:10E26000450045452065727220636E743D00504F35
:10E27000525400303D5A65726F2061646472003FF1
:10E280003D43505520737461747300403D454550C3
:10E29000524F4D207465737400423D426C696E6B41
:10E2A000204C454400453D44756D70204545505215
:10E2B0004F4D00463D44756D7020464C415348001B
:10E2C000483D48656C70004C3D4C69737420492F83
:10E2D0004F20506F72747300513D51756974005234
:10E2E0003D44756D702052414D00563D73686F7707
:10E2F00020696E7465727275707420566563746FF0
:10E30000727300593D506F727420626C696E6B00BD
:10E310002A0011241FBECFEFD1E2DEBFCDBF01E046
:10E320000CBF12E0A0E0B2E0EEE1FDEF03E00BBFB6
:10E3300002C007900D92A030B107D9F712E0A0E01B
:10E34000B2E001C01D92AE30B107E1F70F9460F367
:10E350000D948DFE01E20EBF0FEF0DBF11241FBE05
:10E360000D9460F30D9400F020E030E040ED57E0B4
:10E3700005C0FA013197F1F72F5F3F4F2817390792
:10E38000C0F308959C01260F311DC901A0E0B0E043
:10E390002F5F3F4FABBFFC018791882361F08093D3
:10E3A000C6008091C00086FFFCCF8091C0008064D1
:10E3B0008093C000EACF08958DE08093C6008091DD
:10E3C000C00086FFFCCF8091C00080648093C000B5
:10E3D0008AE08093C6008091C00086FFFCCF8091C8
:10E3E000C00080648093C00008950F94C2F10F9420
:10E3F000DCF10895FC019081992359F09093C600B7
:10E400008091C00086FFFCCF8091C0008064809323
:10E41000C0003196992379F70895282F982F929567
:10E420009F70892F805D8A3308F0895F8093C600D2
:10E430008091C00086FFFCCF8091C00080648093F3
:10E44000C000822F8F70982F905D9A3308F0995FEB
:10E450009093C6008091C00086FFFCCF8091C000E1
:10E4600080648093C00008959C01FB01853691056E
:10E470001CF46330710594F0C90164E670E00F94F8
:10E480002EFE605D7F4F6093C6008091C00086FFC6
:10E49000FCCF8091C00080648093C0002B30310598
:10E4A00014F43297B4F0C90164E670E00F942EFEC4
:10E4B0006AE070E00F942EFE605D7F4F6093C600AF
:10E4C0008091C00086FFFCCF8091C0008064809363
:10E4D000C000C9016AE070E00F942EFEC0968093E0
:10E4E000C6008091C00086FFFCCF8091C000806490
:10E4F0008093C00008951F93182F8EE692EE60E07F
:10E500000F94C2F11093C6008091C00086FFFCCF2B
:10E510008091C00080648093C0000F94DCF11F9153
:10E5200008952F923F924F925F926F927F928F92B7
:10E530009F92AF92BF92CF92DF92EF92FF920F9392
:10E540001F93DF93CF93CDB7DEB762970FB6F894E2
:10E55000DEBF0FBECDBF382E622ECA01DB015C01CB
:10E560006D01772420E2222E2E010894411C511CBB
:10E570008BC081E0A81680E0B80681E0C80680E084
:10E58000D80628F0C601AA27BB270F940DF2BB2797
:10E59000AD2D9C2D8B2D0F940DF28A2D0F940DF225
:10E5A0002092C6008091C00086FFFCCF8091C00001
:10E5B00080648093C0009DE29093C6008091C0006B
:10E5C00086FFFCCF8091C00080648093C0002092C1
:10E5D000C6008091C00086FFFCCF8091C00080649F
:10E5E0008093C00019828601750188249924A1E0D6
:10E5F0003A1651F03A1620F0B2E03B1661F409C029
:10E600000BBFF701779007C0C7010F9477FE782EF4
:10E6100002C0F7017080872D0F940DF22092C60082
:10E620008091C00086FFFCCF8091C0008064809301
:10E63000C000872D8052F401EF70F0708F3520F408
:10E64000E40DF51D708204C0E40DF51D8EE280839B
:10E650000894E11CF11C011D111D0894811C911CE2
:10E6600090E18916910409F0C2CF80E190E0A0E02A
:10E67000B0E0A80EB91ECA1EDB1E198AC2010F9493
:10E68000FAF10F94DCF16A94662009F072CF629679
:10E690000FB6F894DEBF0FBECDBFCF91DF911F91B3
:10E6A0000F91FF90EF90DF90CF90BF90AF909F9031
:10E6B0008F907F906F905F904F903F902F90089534
:10E6C0002F923F924F925F926F927F928F929F9282
:10E6D000AF92BF92CF92DF92EF92FF920F931F9370
:10E6E000DF93CF93CDB7DEB7CD53D1400FB6F894BB
:10E6F000DEBF0FBECDBF01E20EBF0FEF0DBF94B75F
:10E70000F894A89514BE80916000886180936000A1
:10E7100010926000789493FF05C0E0910002F091A0
:10E7200001021995279A2F9A8091C00082608093E8
:10E73000C00080E18093C40088E18093C1000000A4
:10E74000EE24FF24870144E0A42EB12CCC24DD2448
:10E7500024C0C5010197F1F70894E11CF11C011DCB
:10E76000111D21E2E2162EE4F20620E0020720E06D
:10E77000120718F031E0C32ED12CC801B70127ECE5
:10E780003BE140E050E00F9441FE611571058105C9
:10E79000910519F485B1805885B98091C00087FD35
:10E7A00003C0C114D104A9F2A6014F5F5F4FC25E3E
:10E7B000DE4F59834883CE51D140C25EDE4F8881FF
:10E7C0009981CE51D140019711F00D9410FEC05D9A
:10E7D000DE4F19821882C053D14060E0C15DDE4F28
:10E7E0001882CF52D14088249924C35DDE4F19820C
:10E7F0001882CD52D140C05EDE4F188219821A8233
:10E800001B82C052D140CE5CDE4F188219821A8220
:10E810001B82C253D140EE24FF2487010BBFF701B6
:10E8200007911691C45CDE4F19830883CC53D14005
:10E830000D940BFEC25EDE4F28813981CE51D1404E
:10E840002130310509F52091C600C25EDE4F1982E4
:10E850001882CE51D14022C02F5F3F4F4F4F5F4FA4
:10E86000213082E138078AE7480780E0580780F0C6
:10E87000C45CDE4FE881F981CC53D140EF5FFF4F9C
:10E8800019F0EE27FF27099420E030E040E050E047
:10E890008091C00087FFE0CF2091C600C35DDE4FAE
:10E8A00048815981CD52D1404F5F5F4FC35DDE4FEC
:10E8B00059834883CD52D140213209F063C64A3092
:10E8C000510508F05FC60894811C911C53E0851621
:10E8D000910409F059C600E010E018C081E280936D
:10E8E000C6008091C00086FFFCCF8091C00080648C
:10E8F0008093C0002F5F3F4F2931310579F70F9486
:10E90000DCF10F5F1F4F0530110519F020E030E0FA
:10E91000E5CF10920A0210920B0210920C02109294
:10E920000D02109206021092070210920802109235
:10E930000902109202021092030210920402109235
:10E9400005028FEE90EE60E00F94F5F180E191EE1C
:10E9500060E00F94C2F18091C00087FFFCCF9091DE
:10E96000C600903608F09F759032B8F09093C600BC
:10E970008091C00086FFFCCF8091C00080648093AE
:10E98000C000A0E2A093C6008091C00086FFFCCF2B
:10E990008091C00080648093C000983409F4D7C18E
:10E9A0009934B8F4923409F459C1933458F490333B
:10E9B00019F1903308F4E3C59F33A1F1903409F0C5
:10E9C000DEC5BDC0953409F470C1963409F0D7C5D1
:10E9D00098C1923509F42BC2933538F49C3409F46C
:10E9E000F5C1913509F0CBC518C2963509F445C279
:10E9F000993509F0C4C567C483E792EE62E00F94CD
:10EA0000F5F110920602109207021092080210927D
:10EA1000090210920A0210920B0210920C0210923C
:10EA20000D0213C18FE792EE62E00F94F5F18FEEC5
:10EA300090EE60E00F94F5F181E291EE60E00F94CA
:10EA4000C2F187EB91EE60E00F94F5F180E391EE77
:10EA500060E00F94C2F184EE90EE60E00F94F5F167
:10EA60008FE391EE60E00F94C2F186E090E061E008
:10EA700070E00F9434F20F94DCF18DE591EE60E0DC
:10EA80000F94C2F189EC91EE60E00F94F5F18EE401
:10EA900091EE60E00F94C2F183EC91EE60E00F9490
:10EAA000F5F18CE691EE60E00F94C2F18EE10F94E7
:10EAB0000DF288E90F940DF281E00F940DF20F949E
:10EAC000DCF18BE791EE60E00F94C2F119E0E0E039
:10EAD000F0E010935700E4918E2F0F940DF20F94F5
:10EAE000DCF18AE891EE60E00F94C2F1E3E0F0E03F
:10EAF00010935700E4918E2F0F940DF20F94DCF1D8
:10EB000089E991EE60E00F94C2F1E2E0F0E0109349
:10EB10005700E4918E2F0F940DF20F94DCF188EAE8
:10EB200091EE60E00F94C2F1E1E0F0E01093570045
:10EB30001491812F0F940DF20F94DCF107CF8BE825
:10EB400092EE62E00F94F5F18BE492EE60E00F94A8
:10EB5000F5F10F94DCF100E010E019C0C8016F2D51
:10EB60000F947FFEFF2031F489E492EE60E00F9471
:10EB7000C2F10BC0F092C6008091C00086FFFCCFAE
:10EB80008091C00080648093C0000F5F1F4FC80158
:10EB900081519F41A0E0B0E0ABBFFC01F790BAE229
:10EBA000FB1621F0E2E000301E07C1F60F94DCF105
:10EBB0000F94DCF187E592EE60E00F94F5F10F948D
:10EBC000DCF1CC24DD2400E010E01EC0C8010F946D
:10EBD00077FEF82E882331F489E492EE60E00F94FA
:10EBE000C2F10BC08093C6008091C00086FFFCCFAD
:10EBF0008091C00080648093C000FE1419F00894D6
:10EC0000C11CD11C0F5F1F4FC80181519F41A0E063
:10EC1000B0E0ABBFFC01E790FAE2EF1621F022E092
:10EC20000030120799F60F94DCF10F94DCF182E6C4
:10EC300092EE60E00F94C2F1C60161E070E00F94C3
:10EC400034F20F94DCF10F94DCF110920202109276
:10EC50000302109204021092050278CE89E992EE26
:10EC600062E00F94F5F1279A2F9A16C02F9880E052
:10EC700090E0E0EDF7E03197F1F7019684369105E9
:10EC8000C1F72F9A80E090E0E0EDF7E03197F1F7DF
:10EC9000019684369105C1F78091C00087FFE6CFC9
:10ECA0008091C00087FFFCCF64C485EA92EE62E0E9
:10ECB0000F94F5F140910202509103026091040219
:10ECC0007091050281E020E10F9491F2809102029F
:10ECD00090910302A0910402B091050280509F4FD1
:10ECE000AF4FBF4F8093020290930302A0930402A0
:10ECF000B093050280509041A040B04008F426CE69
:10ED0000A4CF83EB92EE62E00F94F5F140910602FE
:10ED100050910702609108027091090280E020E1A1
:10ED20000F9491F28091060290910702A09108023F
:10ED3000B091090280509F4FAF4FBF4F80930602A2
:10ED400090930702A0930802B0930902FFCD80ECD4
:10ED500092EE62E00F94F5F183E792EE60E00F949B
:10ED6000F5F18FE792EE60E00F94F5F18BE892EE0B
:10ED700060E00F94F5F189E992EE60E00F94F5F10F
:10ED800085EA92EE60E00F94F5F183EB92EE60E09D
:10ED90000F94F5F180EC92EE60E00F94F5F187ECC2
:10EDA00092EE60E00F94F5F188ED92EE60E00F9442
:10EDB000F5F18FED92EE60E00F94F5F18AEE92EEB0
:10EDC00060E00F94F5F183E093EEBDCD87EC92EE19
:10EDD00062E00F94F5F181E40F947BF282E40F94EA
:10EDE0007BF283E40F947BF284E40F947BF285E45E
:10EDF0000F947BF286E40F947BF287E40F947BF20E
:10EE000088E40F947BF28AE40F947BF28BE40F94F6
:10EE10007BF28CE40F947BF299CD88ED92EE62E068
:10EE20000F94F5F1772473948824992409C48FED05
:10EE300092EE62E00F94F5F140910A0250910B02BC
:10EE400060910C0270910D0282E020E10F9491F22A
:10EE500080910A0290910B02A0910C02B0910D02D8
:10EE600080509F4FAF4FBF4F80930A0290930B0289
:10EE7000A0930C02B0930D0269CD8AEE92EE62E08F
:10EE80000F94F5F184EE90EE60E00F94F5F18FECC5
:10EE900091EE60E00F94F5F1662477244301CC5D98
:10EEA000DE4F19821882C452D140D401C301B695F5
:10EEB000A79597958795CA5DDE4F88839983AA8326
:10EEC000BB83C652D140CC5DDE4FA881B981C4520C
:10EED000D1401196CC5DDE4FB983A883C452D14096
:10EEE000CD0162E070E00F9434F2B0E2B093C6005E
:10EEF0008091C00086FFFCCF8091C0008064809329
:10EF0000C000EDE2E093C6008091C00086FFFCCF18
:10EF10008091C00080648093C000F0E2F093C6004E
:10EF20008091C00086FFFCCF8091C00080648093F8
:10EF3000C000CA5DDE4FE880F9800A811B81C6529D
:10EF4000D140BB27A12F902F8F2D0F940DF2CA5DBA
:10EF5000DE4F8881C652D1400F940DF2B0E2FB2EF5
:10EF6000F092C6008091C00086FFFCCF8091C00067
:10EF700080648093C0000DE30093C6008091C000C0
:10EF800086FFFCCF8091C00080648093C00010E2B7
:10EF90001093C6008091C00086FFFCCF8091C00016
:10EFA00080648093C0008BBEF3012791C65DDE4F65
:10EFB0002883CA52D140A22EBB24CC24DD2408943D
:10EFC000611C711C811C911C8BBEF3018791282E42
:10EFD0003324442455240894611C711C811C911C09
:10EFE0008BBEF3013791C55DDE4F3883CB52D140E4
:10EFF0000894611C711C811C911C8BBEF30147910C
:10F00000C45DDE4F4883CC52D140ADEFEA2EAFEF66
:10F01000FA2EAFEF0A2FAFEF1A2F6E0C7F1C801E57
:10F02000911E142D032DF22CEE24EA0CFB1C0C1D5A
:10F030001D1D0F940DF220E22093C6008091C000A8
:10F0400086FFFCCF8091C00080648093C000C65DC5
:10F05000DE4F8881CA52D1400F940DF230E23093D6
:10F06000C6008091C00086FFFCCF8091C000806404
:10F070008093C000C45DDE4F8881CC52D1400F9494
:10F080000DF240E24093C6008091C00086FFFCCFA5
:10F090008091C00080648093C000C55DDE4F888190
:10F0A000CB52D1400F940DF250E25093C6008091A4
:10F0B000C00086FFFCCF8091C00080648093C000B8
:10F0C0008FEFE8168FEFF80680E0080780E018075A
:10F0D00031F484E092EE60E00F94C2F1DFC0D80119
:10F0E000C7018070907CA070B0708050904CA040A0
:10F0F000B040D1F52FEF3FE340E050E0E222F322B1
:10F1000004231523CA5DDE4FA880B980CA80DB8046
:10F11000C652D140AE0CBF1CC01ED11EAA0CBB1CD7
:10F12000CC1CDD1C8EE092EE60E00F94C2F1BB2798
:10F13000A12F902F8F2D0F940DF28E2D0F940DF285
:10F1400030E23093C6008091C00086FFFCCF8091F2
:10F15000C00080648093C0004EE34093C60080915D
:10F16000C00086FFFCCF87C08EE09EEFA0E0B0E03D
:10F17000E822F9220A231B239CE0E91694E9F90608
:10F1800090E0090790E0190709F088C0C45DDE4FE0
:10F19000A881CC52D140EA2EFF2400E010E0102FCD
:10F1A0000F2DFE2CEE24C55DDE4FB881CB52D14031
:10F1B000EB0EF11C011D111DD601C501817090706F
:10F1C000A070B070DC0199278827E80EF91E0A1F8D
:10F1D0001B1F20EF30E040E050E0A222B322C42207
:10F1E000D52241E1AA0CBB1CCC1CDD1C4A95D1F7F1
:10F1F000EA0CFB1C0C1D1D1D81E090E0A0E0B0E0BE
:10F20000282239224A225B2235E1220C331C441C7D
:10F21000551C3A95D1F7E20CF31C041D151D57013E
:10F220006801AA0CBB1CCC1CDD1C85E192EE60E0E1
:10F230000F94C2F1C801AA27BB270F940DF2BB2778
:10F24000A12F902F8F2D0F940DF28E2D0F940DF274
:10F2500090E29093C6008091C00086FFFCCF809121
:10F26000C00080648093C000AEE3A093C60080918C
:10F27000C00086FFFCCF8091C00080648093C000F6
:10F28000C601AA27BB270F940DF2BB27AD2D9C2DDD
:10F290008B2D0F940DF28A2D0F940DF20F94DCF14B
:10F2A000CC5DDE4FE881F981C452D140F99709F471
:10F2B0004DCBF4E0EF2EF12C012D112D6E0C7F1CA7
:10F2C000801E911EF2CD83E093EE62E00F94F5F183
:10F2D0008AE192EE60E00F94C2F18091C00087FF56
:10F2E000FCCF1091C6001F751093C6008091C0001E
:10F2F00086FFFCCF8091C00080648093C0000F9493
:10F30000DCF1812F81548A3108F036C1163409F4BA
:10F3100095C0173490F4133409F44EC0143430F40B
:10F320001134F1F0123409F01DC130C0143409F465
:10F3300059C0153409F016C16BC01A3409F4C4C0A1
:10F340001B3438F4173409F48FC0183409F00AC19B
:10F35000A1C01B3409F4D2C01C3409F003C1E8C0B9
:10F360008FEF81B90DC082B1809582B980E090E0C5
:10F37000E0EDF7E03197F1F70196883C9105C1F790
:10F380008091C00087FFEFCF12B8EFC08FEF84B934
:10F390000DC085B1809585B980E090E0E0EDF7E0A3
:10F3A0003197F1F70196883C9105C1F78091C00033
:10F3B00087FFEFCF15B8D9C08FEF87B90DC088B1DF
:10F3C000809588B980E090E0E0EDF7E03197F1F7C3
:10F3D0000196883C9105C1F78091C00087FFEFCF6F
:10F3E00018B8C3C08FEF8AB90DC08BB180958BB9A7
:10F3F00080E090E0E0EDF7E03197F1F70196883C8E
:10F400009105C1F78091C00087FFEFCF1BB8ADC059
:10F410008FEF8DB90DC08EB180958EB980E090E0F0
:10F42000E0EDF7E03197F1F70196883C9105C1F7DF
:10F430008091C00087FFEFCF1EB897C08FEF80BBD1
:10F440000DC081B3809581BB80E090E0E0EDF7E0F6
:10F450003197F1F70196883C9105C1F78091C00082
:10F4600087FFEFCF11BA81C08FEF83BB0DC084B38C
:10F47000809584BB80E090E0E0EDF7E03197F1F714
:10F480000196883C9105C1F78091C00087FFEFCFBE
:10F4900014BA6BC08FEF809301010FC080910201FD
:10F4A00080958093020180E090E0E0EDF7E03197F5
:10F4B000F1F70196883C9105C1F78091C00087FF64
:10F4C000EDCF1092020151C08FEF809304010FC065
:10F4D0008091050180958093050180E090E0E0ED4A
:10F4E000F7E03197F1F70196883C9105C1F78091DB
:10F4F000C00087FFEDCF1092050137C08FEF8093DA
:10F5000007010FC08091080180958093080180E079
:10F5100090E0E0EDF7E03197F1F70196883C910536
:10F52000C1F78091C00087FFEDCF109208011DC088
:10F530008FEF80930A010FC080910B01809580931B
:10F540000B0180E090E0E0EDF7E03197F1F70196F4
:10F55000883C9105C1F78091C00087FFEDCF1092E4
:10F560000B0103C085E292EEEEC98091C00087FFD7
:10F57000FCCF8091C600EAC988E392EEE4C98CE131
:10F5800091EEE1C988249924933011F1943028F444
:10F59000913089F09230B8F408C0953061F195301F
:10F5A000F0F0963009F048C043C02B3109F042C951
:10F5B00091E06BE13FC96227C15DDE4F2883CF52E6
:10F5C000D14092E037C9B22FA0E0622793E032C960
:10F5D000822F90E0A82BB92B622794E02BC92E3004
:10F5E00009F039C3622795E0C05DDE4F19821882A9
:10F5F000C053D1401FC9E1E0F0E0EC0FFD1FC05D3A
:10F60000DE4F08811981C053D140E00FF11F2083E4
:10F610000F5F1F4FC05DDE4F19830883C053D14079
:10F6200062270A171B0709F005C9D80196E002C92D
:10F63000261709F010C303C0973009F0FBC87724E0
:10F640009981933109F412C19431C8F4963009F4C8
:10F65000D8C0973050F4923009F406C1933009F4C1
:10F660006DC0913009F059C253C0913109F477C08F
:10F67000923108F0BBC0903109F04FC2F5C098310B
:10F6800009F487C0993150F4953109F4EFC09531F0
:10F6900008F4C6C1963109F040C2C2C19A3109F4DA
:10F6A0006CC09A3108F491C09B3109F45BC09D3164
:10F6B00009F033C29D81903359F48F81882311F46E
:10F6C0009EE11CC0813011F091E018C098E916C08D
:10F6D000892F807591F0903539F4E0E0F0E089E011
:10F6E0008093570094910AC0983539F4E3E0F0E034
:10F6F00089E080935700949101C090E01A821B82A8
:10F700008D818C831D829E831F8227E030E009C299
:10F710001A8288E08B8381E48C8386E58D8382E581
:10F720008E8389E48F8383E5888780E589878FE5E9
:10F730008A8782E38B872BE030E0F3C18A818139AD
:10F7400041F0823941F0803911F48FE005C080E04A
:10F7500003C082E001C08AE01A828B8344C0772410
:10F76000739482C08D81882311F48EE12CC0813086
:10F7700011F081E028C088E926C01A82E1E0F0E0BB
:10F7800089E08093570084918B831C8224E030E0D1
:10F79000C8C18B81803589F48C81883039F4E2E0EE
:10F7A000F0E089E08093570084910DC0E0E0F0E044
:10F7B00089E080935700849106C0E3E0F0E089E09F
:10F7C0008093570084911A82DFCF8D81836C99E0FA
:10F7D000E1E0F0E0082E90935700E89507B600FCB2
:10F7E000FDCF1A821B8223E030E09BC180EC8A832C
:10F7F000CE5CDE4F188219821A821B82C253D1401E
:10F800008EC18A8190E0A0E0B0E0582F44273327D2
:10F8100022278B8190E0A0E0B0E0DC0199278827C7
:10F82000282B392B4A2B5B2B8D8190E0A0E0B0E098
:10F83000282B392B4A2B5B2B8C8190E0A0E0B0E089
:10F84000BA2FA92F982F8827282B392B4A2B5B2BCF
:10F85000220F331F441F551FC05EDE4F288339839C
:10F860004A835B83C052D1401A8259C13A81C95C34
:10F87000DE4F3883C753D140CA5CDE4F1882C6536F
:10F88000D1408B81C82EDD24CA5CDE4F488159816E
:10F89000C653D140C42AD52A933109F082C0CE5C28
:10F8A000DE4F88819981AA81BB81C253D1408050AB
:10F8B000904CA340B04030F583E0CE5CDE4FE88052
:10F8C000F9800A811B81C253D140F70100935B008C
:10F8D00080935700E89507B600FCFDCFCE5CDE4F65
:10F8E000088119812A813B81C253D14000501F4FAA
:10F8F0002F4F3F4FCE5CDE4F088319832A833B8313
:10F90000C253D140C05EDE4F488159816A817B81FC
:10F91000C052D140DE011B9631E08C9111962C91A2
:10F9200011971296C75CDE4F2883C953D140C85C3B
:10F93000DE4F1882C853D14090E0C85CDE4FE881AA
:10F94000F981C853D1408E2B9F2B0C01FA01609393
:10F950005B0030935700E89511244E5F5F4F6F4F67
:10F960007F4F0EEFE02E0FEFF02ECE0CDF1CC114F8
:10F97000D10499F685E0C05EDE4F088119812A81A5
:10F980003B81C052D140F80120935B008093570027
:10F99000E89507B600FCFDCF81E180935700E8951C
:10F9A00035C0C05EDE4F88819981AA81BB81C0527B
:10F9B000D140B695A795979587957C018601ABE0D8
:10F9C000AA2EB12CAC0EBD1E0BC0D5016D915D01F0
:10F9D000C7010F947FFE0894E11CF11C01501040F8
:10F9E0000115110591F7A60160E070E0440F551F65
:10F9F000661F771FC05EDE4FE880F9800A811B8199
:10FA0000C052D1404E0D5F1D601F711F1A82C05E33
:10FA1000DE4F488359836A837B83C052D1407FC0C5
:10FA2000FA80C55CDE4FF882CB53D140C65CDE4F16
:10FA30001882CA53D1408B81C82EDD24C65CDE4FAC
:10FA400008811981CA53D140C02AD12A1A828981DA
:10FA5000BE016D5F7F4F843121F59601C05EDE4FA0
:10FA6000E880F9800A811B81C052D1400BBFF701A9
:10FA700087919691DB018C9311969C936E5F7F4FDB
:10FA8000D801C7010296A11DB11DC05EDE4F88835B
:10FA90009983AA83BB83C052D14022503040F1F6F3
:10FAA00036C0C05EDE4F288139814A815B81C052F9
:10FAB000D1400894C108D108760100E010E0089414
:10FAC000C11CD11C0894E11CF11C011D111DE20E8A
:10FAD000F31E041F151F21BDBB27A52F942F832FB5
:10FAE00082BD2F5F3F4F4F4F5F4FF89A80B5DB01CC
:10FAF0008D93BD012E153F054007510761F7C05E8C
:10FB0000DE4F288339834A835B83C052D1409601FC
:10FB10002D5F3F4FFB01108204C080EC8A8322E0FE
:10FB200030E08BE18093C6008091C00086FFFCCF5F
:10FB30008091C00080648093C000C15DDE4FF88179
:10FB4000CF52D140F093C6008091C00086FFFCCF19
:10FB50008091C00080648093C000432F3093C60022
:10FB60008091C00086FFFCCF8091C00080648093AC
:10FB7000C000922F2093C6008091C00086FFFCCF6A
:10FB80008091C00080648093C0008EE08093C600A6
:10FB90008091C00086FFFCCF8091C000806480937C
:10FBA000C00065E1C15DDE4FE880CF52D1406E25D7
:10FBB00069276427FE01319610C090819093C6009A
:10FBC0008091C00086FFFCCF31968091C000806498
:10FBD0008093C0006927215030402115310569F715
:10FBE0006093C6008091C00086FFFCCF8091C0006A
:10FBF00080648093C00085B1805885B9772081F4F6
:10FC0000C15DDE4F0881CF52D1400F5FC15DDE4F35
:10FC10000883CF52D14090E0A0E0B0E00D941AF4F8
:10FC200027982F9880E090E020ED37E0F901319798
:10FC3000F1F7019684369105C9F700008091C00064
:10FC40008D7F8093C00081E180935700E895EE2777
:10FC5000FF270994FFCF90E00D941AF497FB092E2B
:10FC600007260AD077FD04D02ED006D000201AF443
:10FC7000709561957F4F0895F6F7909581959F4F08
:10FC80000895A1E21A2EAA1BBB1BFD010DC0AA1FDD
:10FC9000BB1FEE1FFF1FA217B307E407F50720F0F5
:10FCA000A21BB30BE40BF50B661F771F881F991F70
:10FCB0001A9469F760957095809590959B01AC01B9
:10FCC000BD01CF010895AA1BBB1B51E107C0AA1FAC
:10FCD000BB1FA617B70710F0A61BB70B881F991FED
:10FCE0005A95A9F780959095BC01CD010895F99991
:10FCF000FECF92BD81BDF89A992780B50895262F31
:10FD0000F999FECF1FBA92BD81BD20BD0FB6F89400
:0EFD1000FA9AF99A0FBE01960895F894FFCF63
:040000033000E000E9
:00000001FF
